:020000040800F2
:1000000000A0002075330008D9320008E132000852
:1000100000000000000000000000000000000000E0
:10002000000000000000000000000000E9320008AD
:100030000000000000000000F3320008FD3200085C
:10004000C5330008C5330008C5330008C5330008B0
:10005000C5330008C5330008C53300080B3300085A
:10006000C5330008C5330008C5330008C533000890
:10007000C5330008C5330008C5330008C533000880
:10008000C5330008C5330008C5330008C533000870
:10009000C5330008C5330008C5330008C533000860
:1000A000C5330008C5330008C5330008C533000850
:1000B000C5330008C5330008C5330008C533000840
:1000C00010B5064C2378002B07D1054B002B02D02E
:1000D000044800E000BF0123237010BD2000002071
:1000E0000000000020340008044B10B5002B03D0A2
:1000F0000349044800E000BF10BDC04600000000F6
:100100002400002020340008002243088B4274D3CE
:1001100003098B425FD3030A8B4244D3030B8B4208
:1001200028D3030C8B420DD3FF22090212BA030C11
:100130008B4202D31212090265D0030B8B4219D3F2
:1001400000E0090AC30B8B4201D3CB03C01A524112
:10015000830B8B4201D38B03C01A5241430B8B425A
:1001600001D34B03C01A5241030B8B4201D30B0343
:10017000C01A5241C30A8B4201D3CB02C01A52416A
:10018000830A8B4201D38B02C01A5241430A8B422D
:1001900001D34B02C01A5241030A8B4201D30B0216
:1001A000C01A5241CDD2C3098B4201D3CB01C01A30
:1001B000524183098B4201D38B01C01A524143093A
:1001C0008B4201D34B01C01A524103098B4201D328
:1001D0000B01C01A5241C3088B4201D3CB00C01A95
:1001E000524183088B4201D38B00C01A524143080D
:1001F0008B4201D34B00C01A5241411A00D2014632
:10020000524110467047FFE701B5002000F006F8A4
:1002100002BDC0460029F7D076E770477047C04658
:10022000002B11D1002A0FD1002900D1002802D0C3
:100230000021C943080007B4024802A140180290F7
:1002400003BDC046D9FFFFFF03B4684601B502985D
:1002500000F006F8019B9E4602B00CBC7047C046F9
:10026000F0B557464E464546DE46E0B504000D0063
:100270009246994683B08B4230D82DD0494650469D
:1002800000F0BAF829000600200000F0B5F8331A93
:100290009846203B34D49B4653465A4693404246A8
:1002A0001F00534693401E00AF423BD8AF4200D1DF
:1002B00079E05B46A41BBD41002B00DA76E000220A
:1002C00000230092019301235A4693400193012396
:1002D00042469340009329E08242CFD90022002376
:1002E000009201930C9B002B01D01C605D60009874
:1002F000019903B0F0BCBB46B246A946A046F0BD8A
:1003000042469B4620239B1A5246DA404146130040
:100310004A468A40170042461F43534693401E00F8
:10032000AF42C3D900220023009201934346002B21
:10033000D8D0FB0772081A4346467B080EE0AB4252
:1003400001D1A2420CD8A41A9D41012024196D416B
:100350000021013E24184D41002E06D0AB42EED9BB
:10036000013E24196D41002EF8D1009801995B4699
:1003700000196941002B24DB2B005A464446D34028
:100380002A00E2401C005B461500002B2ADB2600F9
:100390009E40330026004746BE403200801A9941F5
:1003A000009001919EE7A342BCD882E742462023F9
:1003B00000219B1A0022009101920122DA40019251
:1003C00085E7424620239B1A2A0046469A4023008E
:1003D000F340444613432A00E2401C005B461500EC
:1003E000002BD4DA42462F002023260097409B1A88
:1003F000DE403B003343CDE710B5002903D100F0C8
:1004000007F8203002E0080000F002F810BDC046F6
:100410001C2101231B04984201D3000C10391B0A34
:10042000984201D3000A08391B09984201D30009F8
:10043000043902A2105C40187047C046040302024F
:1004400001010101000000000000000080B58AB039
:1004500000AF0200FB1D1A7000237B62FB1D1B789E
:10046000002B03D002235B427B6223E0144BDA6C47
:10047000134B01210A43DA64114BDB6C0122134058
:10048000FB60FB6820231A0010217B181A607B1880
:1004900001225A607B1800229A607B180322DA60DE
:1004A000FB1D1A78074B9200D3587A1811001800D8
:1004B00000F060FB7B6A1800BD460AB080BDC046F4
:1004C000001002400400002080B588B000AF020098
:1004D000FB1D1A70BB1D0A1C1A70364BDA6C354BAB
:1004E00004210A43DA64334BDB6C04221340BB6003
:1004F000BB6880239B011A000C217B181A607B18B3
:1005000001229A607B180222DA60BB1D1B78002B47
:100510000DD17B1800225A60FB1D1A78264B9200E1
:10052000D3587A181100180000F024FB3DE00C218C
:100530007B18842292035A60FB1D1A781E4B92008E
:10054000D3587A181100180000F014FBFB1D1A781C
:1005500013005B009B189B00184A9818FB1D1A7823
:10056000174B9200D358190000F0A8FAFB1D1A7817
:1005700013005B009B189B00104A9818FB1D1A780B
:10058000104B9200D3581A00002100F065FA0720A2
:10059000FB1D1A780C4B9200D3580022190000F072
:1005A00029FA0723180000F03AFA00231800BD4684
:1005B00008B080BD00100240080000203C00002070
:1005C000383400080C0000201000002080B582B0F4
:1005D00000AF0200FB1D1A70FB1D1A7813005B00B0
:1005E0009B189B00044A9B18180000F079FAC0463B
:1005F000BD4602B080BDC0463C00002080B582B040
:1006000000AF0200FB1D1A70C046BD4602B080BD9F
:1006100080B584B000AF02003960FB1D1A70002362
:10062000FB60FB1D1B78002B03D002235B42FB60A9
:1006300018E0FB1D1B7894225A430D4BD318180069
:1006400000F056F8FB1D1B7894225A43084BD31830
:100650003A681100180000F00DF8031E02D00423C0
:100660005B42FB60FB681800BD4604B080BDC0461D
:100670004800002080B582B000AF78603960174B29
:100680001A687B681A603B681A687B685A607B68E6
:100690000C225A613B685B891A007B681A613B68CF
:1006A0005A687B689A603B681B891A007B68DA602D
:1006B0003B689B891A007B689A617B6880221202E2
:1006C000DA617B6800225A627B68180002F098F8B1
:1006D00003001800BD4602B080BDC04600000020E7
:1006E00080B500AF0020FFF789FFC046BD4680BD42
:1006F00090B58BB000AF7860284BDA6C274B0121A6
:100700000A43DA64254BDB6C012213403B613B69F1
:10071000224BDA6C214B01210A43DA641F4BDB6C5C
:1007200001221340FB60FB681C4B9A6D1B4B802120
:1007300089020A439A65194B9A6D80239B021340E4
:10074000BB60BB6814243B1904221A603B190222C7
:100750005A603B190222DA603B1901229A603B1968
:1007600007221A613A19A023DB051100180000F0D6
:1007700001FA3B1908221A603B1902225A603B1900
:1007800007221A613A19A023DB051100180000F0B6
:10079000F1F9C046BD460BB090BDC0460010024006
:1007A00080B582B000AFFB1D00221A70032000F05C
:1007B0000FF8031E03D0FB1D01221A7001E002F0A6
:1007C00067FDFB1D1B781800BD4602B080BD000010
:1007D00090B585B000AF78600F23FB1800221A7027
:1007E0001D4B1B78002B2BD01C4B1C681A4B1B7805
:1007F0001900FA239800FFF787FC03001900200076
:10080000FFF782FC0300180000F019F9031E12D153
:100810007B68032B0AD8796801235B420022180009
:1008200000F0E8F80E4B7A681A600DE00F23FB1811
:1008300001221A7008E00F23FB1801221A7003E04E
:100840000F23FB1801221A700F23FB181B781800C6
:10085000BD4605B090BDC046180000201C00002019
:100860001400002080B500AF054B1B781A00054B23
:100870001B68D218034B1A60C046BD4680BDC046F7
:1008800018000020DC00002080B500AF024B1B6880
:100890001800BD4680BDC046DC00002080B582B097
:1008A00000AF0200FB1D1A70FB1D1B787F2B09D8BF
:1008B000FB1D1B781A001F231A40044B0121914095
:1008C0000A001A60C046BD4602B080BD00E100E0EB
:1008D00090B583B000AF02003960FB1D1A70FB1D9C
:1008E0001B787F2B28D82F4AFB1D1B785BB29B08F7
:1008F000C0339B009B58FA1D1278110003220A4056
:10090000D200FF2191400A00D2431A4011003B68F7
:100910009B01FF221A40FB1D1B7818000323034094
:10092000DB009A401F48FB1D1B785BB29B080A4303
:10093000C0339B001A5031E01B4AFB1D1B78190085
:100940000F230B40083B9B0806339B00D31804334E
:100950001B68FA1D1278110003220A40D200FF2101
:1009600091400A00D2431A4011003B689B01FF22CC
:100970001A40FB1D1B78180003230340DB009A403C
:100980000948FB1D1B781C000F232340083B9B08D4
:100990000A4306339B00C31804331A60C046BD46A1
:1009A00003B090BD00E100E000ED00E080B582B052
:1009B00000AF78607B685A1E80235B049A4201D3A3
:1009C000012310E00A4B7A68013A5A6001235B4226
:1009D00003211800FFF77CFF054B00229A60044BAF
:1009E00007221A6000231800BD4602B080BDC04631
:1009F00010E000E080B584B000AFB9607A600F21EC
:100A00007B18021C1A70BA687B181B785BB2110045
:100A10001800FFF75DFFC046BD4604B080BD80B53D
:100A200082B000AF0200FB1D1A70FB1D1B785BB289
:100A30001800FFF733FFC046BD4602B080BD80B549
:100A400082B000AF78607B681800FFF7AFFF03004B
:100A50001800BD4602B080BD80B586B000AFF8601A
:100A60007A600B203B180A1C1A701723FB1800220F
:100A70001A703B181B78022B10D013DC002B02D00D
:100A8000012B07D00EE0FB687A685A60FB687A6831
:100A90009A600CE0FB687A685A6008E0FB687A6844
:100AA0009A6004E01723FB1801221A70C04617232E
:100AB000FB181B781800BD4606B080BD80B582B01B
:100AC00000AF786039607B68002B01D1012303E01F
:100AD0007B683A681A6000231800BD4602B080BDEA
:100AE00080B586B000AF78607B681B681B0C012264
:100AF00013407B617B681B681F22134001229A40D0
:100B000013003B617B695B01184A94466344FB60B8
:100B1000FB681A683B691340BB60BB68002B09D0B7
:100B2000FB683A691A607B685B68002B02D07B68BF
:100B30005B6898477B695B010D4A94466344FB60A0
:100B4000FB681A683B691340BB60BB68002B09D087
:100B5000FB683A691A607B689B68002B02D07B684F
:100B60009B689847C046BD4606B080BD0C18024041
:100B70001018024080B586B000AF7860396000235D
:100B80007B6153E13B681B6801217A6991400A004F
:100B90001340FB60FB68002B00D144E13B685B68BD
:100BA00003221340012B05D03B685B6803221340EE
:100BB000022B30D17B689B683B617B695B00032221
:100BC0009A401300DA433B6913403B613B68DA68A3
:100BD0007B695B009A4013003A6913433B617B6871
:100BE0003A699A607B685B683B6101227B699A4045
:100BF0001300DA433B6913403B613B685B681B09A8
:100C000001221A407B699A4013003A6913433B6101
:100C10007B683A695A603B685B6803221340032B88
:100C200017D07B68DB683B617B695B0003229A40DD
:100C30001300DA433B6913403B613B689A687B6968
:100C40005B009A4013003A6913433B617B683A6941
:100C5000DA603B685B6803221340022B23D17B6977
:100C6000DA087B6808329200D3583B617B6907221F
:100C700013409B000F229A401300DA433B69134054
:100C80003B613B681A697B6907210B409B009A40D6
:100C900013003A6913433B617B69DA087B680832C9
:100CA00092003969D1507B681B683B617B695B00AE
:100CB00003229A401300DA433B6913403B613B68CF
:100CC0005B6803221A407B695B009A4013003A6913
:100CD00013433B617B683A691A603B685A68C023DA
:100CE0009B02134000D19EE0564A7B699B08183353
:100CF0009B009B583B617B6903221340DB000F2262
:100D00009A401300DA433B6913403B617A68A023A1
:100D1000DB059A421FD07B684B4A934219D07B680F
:100D20004A4A934213D07B68494A93420DD07B686C
:100D3000484A934207D07B68474A934201D1052332
:100D40000AE0062308E0042306E0032304E002236C
:100D500002E0012300E000237A6903210A40D20067
:100D600093403A6913433B6136497B699B081833CA
:100D70009B003A695A50334B1B683B61FB68DA436E
:100D80003B6913403B613B685A6880235B03134017
:100D900003D03A69FB6813433B612A4B3A691A60F6
:100DA000284B5B683B61FB68DA433B6913403B615E
:100DB0003B685A6880239B03134003D03A69FB6861
:100DC00013433B611F4B3A695A601E4A8423D35830
:100DD0003B61FB68DA433B6913403B613B685A68FF
:100DE00080239B02134003D03A69FB6813433B61A5
:100DF000144984223B698B50124A8023D3583B61AB
:100E0000FB68DA433B6913403B613B685A688023C7
:100E10005B02134003D03A69FB6813433B61094905
:100E200080223B698B507B6901337B613B681A6888
:100E30007B69DA40131E00D0A4E6C046C046BD461A
:100E400006B080BD001802400004005000080050A9
:100E5000000C0050001000500014005080B584B009
:100E600000AF78600A00BB1C1A807B685B69FB607E
:100E7000BB1C1B88FA6813401A04FB68DB43B91CCF
:100E800009880B401A437B689A61C046BD4604B08E
:100E900080BD000080B584B000AF78607A688023A0
:100EA0009B009A4237D1274B1A68C023DB001A40B7
:100EB00080239B009A4240D0224B1B68224A1A4052
:100EC000204B802189000A431A60204B1B68322284
:100ED00053431F491800FFF717F903000133FB6064
:100EE00002E0FB68013BFB60164B5A698023DB0084
:100EF0001A408023DB009A4202D1FB68002BF0D11C
:100F0000104B5A698023DB001A408023DB009A4291
:100F100013D1032312E00B4B1A68C023DB001A40E5
:100F20008023DB009A4208D0064B1B68064A1A4011
:100F3000044B8021C9000A431A6000231800BD46F3
:100F400004B080BD00700040FFF9FFFF1C000020CE
:100F500040420F0080B500AF034B1A68C023DB008E
:100F600013401800BD4680BD00700040B0B588B089
:100F700000AF7860C94B9B6838221340BB61C74BF8
:100F8000DB68032213407B617B681B6810221340DF
:100F900000D1EFE0BB69002B07D0BB69182B00D054
:100FA00093E07B69012B00D08FE0BC4B1B680222D1
:100FB000134006D07B68DB69002B02D1012300F0CF
:100FC000F2FB7B685A6AB54B1B6808210B4004D0C2
:100FD000B24B1B68F0210B4005E0B0499423CB587D
:100FE0001B09F0210B40934225D27B685B6A1800F5
:100FF00000F090FD031E02D0012300F0D4FBA74BAC
:101000001A68A64B08210A431A60A44B1B68F022F9
:10101000934319007B685A6AA04B0A431A609F4B9E
:101020005B689F4A134019007B681B6A1A029B4B3E
:101030000A435A6027E0994B1A68984B08210A43E3
:101040001A60964B1B68F022934319007B685A6A1A
:10105000924B0A431A60914B5B68914A1340190006
:101060007B681B6A1A028D4B0A435A60BB69002BCE
:1010700009D17B685B6A180000F04CFD031E02D0AA
:10108000012300F090FB00F087FC0100834B9B687C
:101090001B0A0F221340834AD35C1A001F231340FC
:1010A0000A00DA40804B1A60804B1B680F257C19C0
:1010B0001800FFF78DFB030023707B191B78002BB2
:1010C00057D07B191B7800F06EFB7B68DB69002B27
:1010D00035D0724B1A68714B01210A431A60FFF731
:1010E000D3FB03003B6109E0FFF7CEFB02003B6945
:1010F000D31A022B02D9032300F055FB674B1B6860
:1011000002221340F0D0654B1A68644B08210A4351
:101110001A60624B1B68F022934319007B685A6A7D
:101120005E4B0A431A605D4B5B685D4A13401900D1
:101130007B681B6A1A02594B0A435A601AE0574BE4
:101140001A68564B01218A431A60FFF79DFB030082
:101150003B6108E0FFF798FB02003B69D31A022BC2
:1011600001D903231FE34D4B1B6802221340F1D129
:1011700000E0C0467B681B680122134000D165E097
:10118000BB69102B05D0BB69182B0ED17B69032BD3
:101190000BD1424B1A6880239B02134055D07B68C9
:1011A0005B68002B51D10123FDE27B685A688023E4
:1011B0005B029A4207D1394B1A68384B80214902A9
:1011C0000A431A6013E07B685A68A023DB029A4244
:1011D00007D1324B1A68314BA021C9020A431A6069
:1011E00005E02E4B1A682D4B31490A401A607B6886
:1011F0005B68002B14D0FFF747FB03003B6108E05E
:10120000FFF742FB02003B69D31A642B01D9032389
:10121000C9E2224B1A6880239B021340F0D015E0EC
:10122000FFF732FB03003B6108E0FFF72DFB0200F4
:101230003B69D31A642B01D90323B4E2174B1A6814
:1012400080239B021340F0D100E0C0467B681B68FE
:101250000222134000D174E0BB69082B05D0BB69A2
:10126000182B29D17B69022B26D10C4B1A688023BD
:10127000DB00134005D07B68DB68002B01D1012324
:1012800091E2064B5B680B4A134019007B681B69AF
:101290001A06024B0A435A6053E0C046001002404F
:1012A000FF00FFFFD83400081C00002014000020BD
:1012B000FFFFFAFFFFFFFF807B68DB68002B26D073
:1012C000C74B1A68C64B802149000A431A60FFF7D2
:1012D000DBFA03003B6108E0FFF7D6FA02003B6946
:1012E000D31A022B01D903235DE2BD4B1A68802378
:1012F000DB001340F0D0BA4B5B68BA4A13401900C8
:101300007B681B691A06B64B0A435A6019E0B44B56
:101310001A68B34BB4490A401A60FFF7B5FA0300E4
:101320003B6108E0FFF7B0FA02003B69D31A022BD9
:1013300001D9032337E2AA4B1A688023DB0013404C
:10134000F0D17B681B680822134051D07B685B6931
:10135000002B31D07B689B69002B08D1A04A9423D5
:10136000D3589F490422934394228B5007E09C4A10
:101370009423D3589A490422134394228B50984AB9
:101380009423D35896490122134394228B50FFF79C
:101390007BFA03003B6108E0FFF776FA02003B6945
:1013A000D31A112B01D90323FDE18D4A9423D3587D
:1013B00002221340F0D01BE0894A9423D358884975
:1013C0000122934394228B50FFF75EFA03003B61A6
:1013D00008E0FFF759FA02003B69D31A112B01D933
:1013E0000323E0E17E4A9423D35802221340F0D134
:1013F0007B681B680422134000D10DE11F203B18BD
:1014000000221A70764B9A6D80235B05134010D131
:10141000734B9A6D724B802149050A439A65704B54
:101420009A6D80235B051340BB60BB683B180122AB
:101430001A706E4B1A6880235B0013401AD16B4BF5
:101440001A686A4B802149000A431A60FFF71CFAA8
:1014500003003B6108E0FFF717FA02003B69D31A6B
:10146000022B01D903239EE1604B1A6880235B00A5
:101470001340F0D07B689B68012213401ED07B682C
:101480009B680422134010D0554A9023D3585449E6
:101490000422134390228B50514A9023D358504931
:1014A0000122134390228B5018E04D4A9023D358C9
:1014B0004B490122134390228B500FE0484A90235E
:1014C000D35847490122934390228B50444A90239A
:1014D000D35843490422934390228B507B689B68E6
:1014E000002B4FD0FFF7D0F903003B6109E0FFF775
:1014F000CBF902003B69D31A3D4A934201D9032339
:1015000051E1374A9023D35802221340EFD07B6831
:101510009B68802213401AD0314A9023D358304917
:101520008022134390228B5009E0FFF7ADF90200AF
:101530003B69D31A2E4A934201D9032333E1284A47
:101540009023D25880231B011340EED059E0244A47
:101550009023D35822498022934390228B5009E054
:10156000FFF792F902003B69D31A214A934201D94D
:10157000032318E11A4A9023D25880231B011340F9
:10158000EED13EE0FFF780F903003B6109E0FFF791
:101590007BF902003B69D31A154A934201D9032310
:1015A00001E10F4A9023D35802221340EFD10C4A95
:1015B0009023D3588022134023D0094A9023D35834
:1015C00007498022934390228B5013E0FFF75CF988
:1015D00002003B69D31A064A93420BD90323E2E087
:1015E00000100240FFFFFF80FFFEFFFF0070004081
:1015F000881300006E4A9023D25880231B011340A9
:10160000E4D11F23FB181B78012B05D1684B9A6D81
:10161000674B68490A409A657B681B682022134023
:101620003CD07B689B6A002B1CD0614A9823D3581E
:101630005F490122134398228B50FFF725F90300DD
:101640003B6108E0FFF720F902003B69D31A022B47
:1016500001D90323A7E0564A9823D3580222134006
:10166000F0D01BE0524A9823D358514901229343AA
:1016700098228B50FFF708F903003B6108E0FFF761
:1016800003F902003B69D31A022B01D903238AE034
:10169000474A9823D35802221340F0D17B68DB6A73
:1016A000002B00D17EE0424B9B6838221340182B60
:1016B00000D175E07B68DB6A022B56D13C4B1A687F
:1016C0003B4B3D490A401A60FFF7DEF803003B61DF
:1016D00008E0FFF7D9F802003B69D31A022B01D9C1
:1016E000032360E0324B1A6880239B041340F0D13F
:1016F0002F4BDB68314A134019007B681A6B7B68FB
:101700005B6B1A437B689B6B1B021A437B681B6CE9
:101710001A437B685B6C1A437B68DB6B1A43244B70
:101720000A43DA60224BDA68214B802149050A43DB
:10173000DA601F4B1A681E4B802149040A431A6065
:10174000FFF7A2F803003B6108E0FFF79DF80200F5
:101750003B69D31A022B01D9032324E0144B1A68E6
:1017600080239B041340F0D01CE0114B1A68104BEF
:1017700011490A401A60FFF787F803003B6108E04F
:10178000FFF782F802003B69D31A022B01D9032329
:1017900009E0074B1A6880239B041340F0D101E055
:1017A000012300E000231800BD4608B0B0BDC046CC
:1017B00000100240FFFFFFEFFFFFFFFE8C80C11112
:1017C000B0B584B000AF786039606C4B1B680722FD
:1017D00013403A689A4211D9684B1B680722934319
:1017E0001900664B3A680A431A60644B1B6807226B
:1017F00013403A689A4201D00123BBE07B681B6822
:101800000122134000D164E07B685B68032B07D1A1
:101810005B4B1A6880239B04134038D10123A9E055
:101820007B685B68022B07D1554B1A6880239B02AB
:1018300013402CD101239DE07B685B68002B06D10F
:101840004F4B1B680222134021D1012392E07B6899
:101850005B68012B07D14A4B1A688023DB001340D9
:1018600015D1012386E07B685B68042B07D1444ACD
:101870009423D3580222134009D101237AE0404A2D
:101880009023D3580222134001D1012372E03C4B34
:101890009B680722934319007B685A68384B0A43B8
:1018A0009A60FEF7F1FF0300FB6009E0FEF7ECFF32
:1018B0000200FB68D31A334A934201D9032359E04B
:1018C0002F4B9B6838221A407B685B68DB009A428A
:1018D000ECD17B681B680222134009D0284B9B681F
:1018E000294A134019007B689A68254B0A439A607D
:1018F000224B1B68072213403A689A4211D21F4BB1
:101900001B680722934319001C4B3A680A431A606C
:101910001A4B1B68072213403A689A4201D00123F0
:1019200028E07B681B680422134009D0144B9B6895
:10193000164A134019007B68DA68114B0A439A6013
:1019400000F02AF801000E4B9B681B0A0F2213407F
:101950000F4AD35C1A001F2313400A00DA400D4BD4
:101960001A600B257C190320FEF732FF0300237059
:101970007B191B781800BD4604B0B0BD00200240A2
:101980000010024088130000FFF0FFFFFF8FFFFFF1
:10199000D83400081C00002080B58AB000AF0023B6
:1019A0007B6200233B62464B9B6838221340BB613D
:1019B000434BDB68032213407B61BB69002B05D0DE
:1019C000BB69182B25D17B69012B22D13C4B1B68AD
:1019D0000822134007D13A4A9423D3581B0A0F22F6
:1019E00013407B6205E0364B1B681B090F22134036
:1019F0007B627B6A0B2B01D900237B62314B7A6AB5
:101A00009200D3587B62BB69002B1BD17B6A3B627F
:101A100018E0BB69082B02D12B4B3B6212E0BB697B
:101A2000102B02D1294B3B620CE0BB69202B03D168
:101A3000FA23DB013B6205E0BB69282B02D180233E
:101A40001B023B62BB69182B35D11D4BDB6803229F
:101A500013403B611A4BDB681B090722134001331B
:101A6000FB603B69022B03D03B69032B03D005E0ED
:101A7000154BFB6105E0154BFB6102E07B6AFB61E6
:101A8000C0460F4BDB681B0A7F221340FA695343A1
:101A9000F9681800FEF738FB0300BB60084BDB68F1
:101AA0005B0F0722134001337B607968B868FEF74B
:101AB0002BFB03003B623B6A1800BD460AB080BDA9
:101AC00000100240F03400080024F40000093D003A
:101AD00080B500AF024B1B681800BD4680BDC046F4
:101AE0001C00002080B500AFFFF7F2FF0100074B9C
:101AF0009B681B0B07221340054AD35C1A001F2367
:101B00001340D9400B001800BD4680BD00100240B4
:101B1000E834000880B586B000AF786000233B61F0
:101B20002F4B9A6D80235B05134004D0FFF712FA08
:101B300003007B6117E02A4B9A6D294B80214905F0
:101B40000A439A65264B9A6D80235B051340FB6020
:101B5000FB68FFF7FFF903007B61214B9A6D204B77
:101B600020490A409A657A6980239B009A4211D1E4
:101B70007B68802B1CD97B68B02B02D902233B6188
:101B800016E07B68902B02D901233B6110E0002313
:101B90003B610DE07B687F2B02D902233B6107E0AC
:101BA0007B68702B02D101233B6101E000233B6184
:101BB0000D4B1B680722934319000B4B3A690A43EC
:101BC0001A60094B1B68072213403A699A4201D0F8
:101BD000012300E000231800BD4606B080BDC046CA
:101BE00000100240FFFFFFEF0020024090B589B0D7
:101BF00000AF78600023FB617A6880231B029A4261
:101C000054D1D54A9023D258C0239B0013407B6106
:101C10007A69C0239B009A4239D07A69C0239B001D
:101C20009A4201D900F01AFD7A6980235B009A423A
:101C300006D07A6980239B009A420FD000F00EFDF7
:101C4000C54A9023D35802221340022B01D000F042
:101C500007FD80231B02FB6100F002FDBE4A9423B6
:101C6000D35802221340022B01D000F0FBFCBA4AE9
:101C70009423D35804221340042B03D1FA23FB618D
:101C800000F0F0FCFA23DB01FB6100F0EBFCB24B4F
:101C90001A6880239B021A4080239B029A4201D03B
:101CA00000F0E2FCAD4BFB6100F0DEFC7A688023C3
:101CB0009B029A4200D11AE17A6880239B029A42E1
:101CC00001D900F0D3FC7A6880235B029A4200D1EC
:101CD0000DE17A6880235B029A4201D900F0C6FCCC
:101CE0007A688023DB019A4200D1EBE17A68802395
:101CF000DB019A4201D900F0B9FC7A6880239B018C
:101D00009A4201D100F050FC7A6880239B019A42EC
:101D100001D900F0ABFC7A6880235B019A4201D1C3
:101D200000F0E2FB7A6880235B019A4201D900F05F
:101D30009DFC7A6880231B019A4201D100F0A9FB27
:101D40007A6880231B019A4201D900F08FFC7A68DF
:101D50008023DB009A4201D100F070FB7A68802377
:101D6000DB009A4201D900F081FC7A6880239B0055
:101D70009A4200D105E37A6880239B009A4201D9F8
:101D800000F074FC7A6880235B009A4200D19BE2E9
:101D90007A6880235B009A4201D900F067FC7B6877
:101DA000802B00D12FE27B68802B01D900F05EFCF4
:101DB0007B68202B0FD87B68002B01D100F056FCEC
:101DC0007B68202B01D900F051FC7B689A00644BA2
:101DD000D3181B689F467B68402B00D1DFE100F0E1
:101DE00045FC5D4A8823D358032213407B617B69FD
:101DF000032B25D07B69032B2DD87B69022B13D0B5
:101E00007B69022B27D87B69002B03D07B69012BD0
:101E100005D020E0FFF766FE0300FB6122E0FFF73C
:101E2000BBFD0300FB611DE04B4B1A688023DB0008
:101E30001A408023DB009A4210D14A4BFB610DE02F
:101E4000454A9023D35802221340022B09D1802304
:101E50001B02FB6105E0C04600F009FCC04600F033
:101E600006FCC04600F003FC3B4A8823D3580C22F2
:101E700013407B617B690C2B25D07B690C2B2DD803
:101E80007B69082B13D07B69082B27D87B69002B33
:101E900003D07B69042B05D020E0FFF723FE03006D
:101EA000FB6122E0FFF778FD0300FB611DE02A4B98
:101EB0001A688023DB001A408023DB009A4210D18D
:101EC000284BFB610DE0244A9023D3580222134093
:101ED000022B09D180231B02FB6105E0C04600F004
:101EE000C6FBC04600F0C3FBC04600F0C0FBFFF7D6
:101EF000F9FD0300FB6100F0BAFB174A8823D258B2
:101F0000C0231B0113407B617A69C0231B019A42E5
:101F100036D07A69C0231B019A423CD87A69802363
:101F20001B019A4220D07A6980231B019A4232D841
:101F30007B69002B05D07A698023DB009A4205D0AB
:101F400029E0FFF7CFFD0300FB612BE0FFF724FD45
:101F50000300FB6126E0C0460010024048E8010093
:101F60003C3400080024F400BB4B1A688023DB00DB
:101F70001A408023DB009A4210D1B84BFB610DE080
:101F8000B54A9023D35802221340022B09D1802353
:101F90001B02FB6105E0C04600F069FBC04600F093
:101FA00066FBC04600F063FBAB4A8823D258C023CF
:101FB0009B0013407B617A69C0239B009A422DD01D
:101FC0007A69C0239B009A4233D87A6980239B00A8
:101FD0009A4217D07A6980239B009A4229D87B695C
:101FE000002B05D07A6980235B009A4205D020E05F
:101FF000FFF778FD0300FB6122E0FFF7CDFC030053
:10200000FB611DE0944B1A688023DB001A4080239B
:10201000DB009A4210D1914BFB610DE08E4A902378
:10202000D35802221340022B09D180231B02FB61EB
:1020300005E0C04600F01BFBC04600F018FBC046A0
:1020400000F015FB844A8823D358C02213407B61DB
:102050007B69C02B25D07B69C02B2DD87B69802B59
:1020600013D07B69802B27D87B69002B03D07B6939
:10207000402B05D020E0FFF735FD0300FB6120E099
:10208000FFF78AFC0300FB611BE0734B1A68802397
:10209000DB001A408023DB009A420FD16F4BFB61BB
:1020A0000CE06D4A9023D35802221340022B07D133
:1020B00080231B02FB6103E0C046D8E2C046D6E2A3
:1020C000C046D4E2644A8823D258C0239B051340FB
:1020D0007B617A6980239B059A4212D07A698023BA
:1020E0009B059A4225D87B69002B05D07A6980230D
:1020F0005B059A4214D01CE0FFF74EFC0300FB6125
:1021000018E0554B1A688023DB001A408023DB005F
:102110009A4202D1514BFB610CE00023FB6109E0C4
:1021200008243B19180000F0ADFA3B191B68FB614D
:1021300000E0C0469BE2484A8823D258C0239B0156
:1021400013407B617A6980239B019A4217D07A6998
:1021500080239B019A421ED87B69002B05D07A69A7
:1021600080235B019A4205D015E0FFF7BBFC03001A
:10217000FB6113E0FFF710FC0300FB610EE0364B40
:102180001A688023DB001A408023DB009A4204D1C6
:10219000324BFB6101E0C04669E2C04667E22E4A6D
:1021A0008823D258C0239B0213407B617A69802325
:1021B0009B029A4217D07A6980239B029A421ED8CA
:1021C0007B69002B05D07A6980235B029A4205D097
:1021D00015E0FFF787FC0300FB6113E0FFF7DCFB72
:1021E0000300FB610EE01C4B1A688023DB001A40E1
:1021F0008023DB009A4204D1184BFB6101E0C0460A
:1022000035E2C04633E2144A8823D258C0231B0368
:1022100013407B617A69C0231B039A4241D07A69DB
:10222000C0231B039A4247D87A6980231B039A4232
:102230002BD07A6980231B039A423DD87B69002BFF
:1022400005D07A698023DB029A4209D034E0FFF797
:1022500049FC0300FB6136E0001002400024F4005A
:10226000BD4A9423D35802221340022B26D1BA4AE6
:102270009423D35804221340042B02D1FA23FB6188
:102280001CE0FA23DB01FB6118E0B34B1A688023E2
:10229000DB001A408023DB009A4211D1AF4BFB6177
:1022A0000EE0AD4A9023D35802221340022B09D1ED
:1022B00080231B02FB6105E0C046D8E1C046D6E1A1
:1022C000C046D4E1C046D2E1A34A8823D258C023F5
:1022D0009B0313407B617A69C0239B039A423DD0E4
:1022E0007A69C0239B039A4243D87A6980239B036F
:1022F0009A4227D07A6980239B039A4239D87B6916
:10230000002B05D07A6980235B039A4205D030E028
:10231000FFF7E8FB0300FB6132E08F4A9423D358B8
:1023200002221340022B26D18B4A9423D358042235
:102330001340042B02D1FA23FB611CE0FA23DB01DA
:10234000FB6118E0844B1A688023DB001A4080236D
:10235000DB009A4211D1814BFB610EE07E4A902353
:10236000D35802221340022B09D180231B02FB61A8
:1023700005E0C0467BE1C04679E1C04677E1C04652
:1023800075E1754A8823D258C0231B0413407B6132
:102390007A69C0231B049A423DD07A69C0231B048A
:1023A0009A4243D87A6980231B049A4227D07A69DB
:1023B00080231B049A4239D87B69002B05D07A69A7
:1023C0008023DB039A4205D030E0FFF78BFB03004C
:1023D000FB6132E0604A9423D35802221340022B5F
:1023E00026D15D4A9423D35804221340042B02D1F2
:1023F000FA23FB611CE0FA23DB01FB6118E0564B7A
:102400001A688023DB001A408023DB009A4211D136
:10241000524BFB610EE0504A9023D35802221340E6
:10242000022B09D180231B02FB6105E0C0461EE19F
:10243000C0461CE1C0461AE1C04618E1464A88235E
:10244000D25880235B0413407B617B69002B05D04D
:102450007A6980235B049A4211D019E03E4B9A6856
:10246000E023DB01134004D1FFF73CFB0300FB61D9
:102470000EE0FFF737FB03005B00FB6108E0082478
:102480003B19180000F0FEF83B195B68FB61C04681
:10249000EDE0314A8823D25880239B0413407B61AE
:1024A0007B69002B05D07A6980239B049A4211D066
:1024B00019E0294B9A68E023DB01134004D1FFF7B0
:1024C00011FB0300FB610EE0FFF70CFB03005B0058
:1024D000FB6108E008243B19180000F0D3F83B1911
:1024E0005B68FB61C046C2E01B4A8823D258C02308
:1024F0001B0513407B617A69C0231B059A4217D0E4
:102500007A69C0231B059A424AD87A6980231B0541
:102510009A4239D07A6980231B059A4240D87B6958
:10252000002B3AD07A698023DB049A4203D037E04B
:102530000B4BFB6137E0084B1B6802221340022B58
:1025400030D1054B1B68082213400BD0024B1B688F
:102550001B090F2213400BE0001002400024F4007E
:10256000006CDC02444A9423D3581B0A0F22134008
:10257000BB61BB690B2B01D90B23BB613F4BBA6914
:102580009200D358FB610DE008243B19180000F0BD
:1025900079F83B195B68FB6105E00023FB6102E011
:1025A000C04664E0C04662E0334A8823D258C02364
:1025B0001B0513407B617A69C0231B059A4217D023
:1025C0007A69C0231B059A4244D87A6980231B0587
:1025D0009A4233D07A6980231B059A423AD87B69A4
:1025E000002B34D07A698023DB049A4203D031E097
:1025F000234BFB6131E0204B1B6802221340022B6E
:102600002AD11D4B1B680822134005D01A4B1B68AA
:102610001B090F22134005E0174A9423D3581B0AC5
:102620000F221340BB61BB690B2B01D90B23BB618C
:10263000124BBA699200D358FB610DE008243B1994
:10264000180000F01FF83B195B68FB6105E00023F0
:10265000FB6102E0C0460AE0C04608E0C04606E072
:10266000C04604E0C04602E0C04600E0C046FB6948
:102670001800BD4609B090BD00100240F0340008BB
:10268000006CDC0280B588B000AF7860584BDB6826
:102690001B0A7F2213407B61554BDB6803221340EA
:1026A0003B61534BDB681B09072213400133FB607E
:1026B0004F4B1B680822134005D04D4B1B681B096C
:1026C0000F22134005E04A4A9423D3581B0A0F22D5
:1026D0001340BB61BB690B2B01D90B23BB613B6969
:1026E000032B20D03B69032B27D83B69012B0CD04F
:1026F0003B69022B21D1F9683E48FDF705FD030037
:102700001A007B695343FB6125E03B4BBA69920099
:10271000D358F9681800FDF7F7FC03001A007B692D
:102720005343FB6117E0F9683448FDF7EDFC030003
:102730001A007B695343FB610DE02F4BBA6992008D
:10274000D358F9681800FDF7DFFC03001A007B6915
:102750005343FB61C046264BDA6880235B0213407B
:102760000ED0234BDB685B0C1F2213400133190092
:10277000F869FDF7C9FC03001A007B681A6002E0E3
:102780007B6800221A601A4BDA6880235B041340CE
:102790000ED0174BDB685B0E072213400133190084
:1027A000F869FDF7B1FC03001A007B685A6002E08B
:1027B0007B6800225A600E4BDA6880235B05134069
:1027C0000ED00B4BDB685B0F07221340013319005F
:1027D000F869FDF799FC03001A007B689A6002E033
:1027E0007B6800229A60C046BD4608B080BDC046E6
:1027F000001002400024F400F034000800093D00FD
:1028000080B582B000AF78607B68002B01D10123D6
:1028100046E07B6888229B58002B07D17B68842286
:10282000002199547B68180000F040F87B688822EA
:10283000242199507B681B681A687B681B680121FA
:102840008A431A607B689B6A002B03D07B68180060
:1028500000F006FA7B68180000F030F80300012B46
:1028600001D101231CE07B681B685A687B681B68E8
:102870000D490A405A607B681B689A687B681B6830
:102880002A218A439A607B681B681A687B681B68E8
:1028900001210A431A607B68180000F095FA0300D2
:1028A0001800BD4602B080BDFFB7FFFF80B582B003
:1028B00000AF7860C046BD4602B080BDB0B592B0F2
:1028C00000AF78621F2320229B18DB1900221A70A8
:1028D0007B6A1B68C84A7B6A9A687B6A1B691A43D1
:1028E0007B6A5B691A437B6ADB6913437B647B6A9F
:1028F0001B681B68C14A134019007B6A1A687B6C0D
:102900000B4313607B6A1B685B68BD4A1340180069
:102910007B6AD9687B6A1A6803000B4353607B6A41
:102920009B697B647B6A1B68B34A93420ED07B6AC7
:102930001B68B44A934209D07B6A1B68B24A93422F
:1029400004D07B6A1B6A7A6C13437B647B6A1B68C6
:102950009B68AE4A134019007B6A1A687B6C0B4374
:1029600093607B6A1B68DB6A0F22934318007B6AC3
:10297000596A7B6A1A6803000B43D3627B6A1B683F
:10298000A34A934202D101233B6433E07B6A1B6874
:10299000A04A934202D102233B642BE07B6A1B686E
:1029A0009D4A934203D180235B023B6422E07B6A11
:1029B0001B689A4A934203D180239B023B6419E02F
:1029C0007B6A1B688C4A934202D110233B6411E05E
:1029D0007B6A1B688B4A934202D108233B6409E05F
:1029E0007B6A1B68884A934202D104233B6401E05E
:1029F00000233B647B6A1B687F4A93420AD07B6A50
:102A00001B68804A934205D07B6A1B687E4A9342CA
:102A100000D06FE03B6C1800FFF7E8F80300BB63E1
:102A2000BB6B002B00D103E17B6A5A6A7C4B5200DE
:102A3000D35A1900B86BFDF767FB0300FB627B6A92
:102A40005A6813005B009B18FA6A9A4205D37B6AA6
:102A50005B681B03FA6A9A4206D91F2320229B183F
:102A6000DB1901221A7044E0BB6BBB610023FB61E0
:102A70007B6A5A6A6A4B5200D35A3B6100237B61DE
:102A80003A697B69B869F969FDF7CAFB02000B0076
:102A9000110E1D020D4314027B6A5B685B08BB606C
:102AA0000023FB60B868F968001969417B6A5B68BC
:102AB0003B6000237B603A687B68FDF7B1FB020056
:102AC0000B0013007B637A6BC0239B009A4209D3EF
:102AD0007A6B80235B039A4204D27B6A1B687A6B11
:102AE000DA6006E01F2320229B18DB1901221A70EE
:102AF0009EE09DE07B6ADA6980231B029A424CD1FA
:102B00003B6C1800FFF772F80300BB63BB6B002B34
:102B100000D18DE07B6A5A6A414B5200D35A1900AA
:102B2000B86BFDF7F1FA03005A007B6A5B685B083B
:102B3000D2187B6A5B6819001000FDF7E5FA030004
:102B40007B637B6B0F2B21D97A6B80235B029A42CC
:102B50001CD27B6B9AB2122020240319DB190F219F
:102B60008A431A807B6B5B089BB20722134099B2A1
:102B70000319DB190219D21912880A431A807B6AD9
:102B80001B680219D2191288DA6051E01F23202233
:102B90009B18DB1901221A704AE03B6C1800FFF702
:102BA00025F80300BB63BB6B002B41D07B6A5A6ADC
:102BB0001B4B5200D35A1900B86BFDF7A5FA03005E
:102BC0001A007B6A5B685B08D2187B6A5B68190035
:102BD0001000FDF799FA03007B637B6B0F2B21D963
:102BE0007A6B80235B029A421CD27B6B9AB27B6A1F
:102BF0001B68DA601CE0C04600800040F369FFCF2C
:102C0000FFCFFFFF00840040008C0040FFF4FF1165
:102C1000003801400044004000480040004C0040A3
:102C2000C03400081F2320229B18DB1901221A70D0
:102C30007B6A6A22012199527B6A6822012199529A
:102C40007B6A00225A677B6A00229A671F23202230
:102C50009B18DB191B781800BD4612B0B0BDC046EA
:102C600080B582B000AF78607B689B6A0822134011
:102C70000BD07B681B685B684A4A134019007B686D
:102C80009A6B7B681B680A435A607B689B6A0122C7
:102C900013400BD07B681B685B68434A13401900E4
:102CA0007B68DA6A7B681B680A435A607B689B6AA8
:102CB000022213400BD07B681B685B683B4A1340C1
:102CC00019007B681A6B7B681B680A435A607B6833
:102CD0009B6A042213400BD07B681B685B68344AF4
:102CE000134019007B685A6B7B681B680A435A6063
:102CF0007B689B6A102213400BD07B681B689B6823
:102D00002C4A134019007B68DA6B7B681B680A4306
:102D10009A607B689B6A202213400BD07B681B68FB
:102D20009B68254A134019007B681A6C7B681B68F6
:102D30000A439A607B689B6A402213401DD07B68DF
:102D40001B685B681D4A134019007B685A6C7B68DE
:102D50001B680A435A607B685A6C80235B039A4263
:102D60000BD17B681B685B68154A134019007B68B0
:102D70009A6C7B681B680A435A607B689B6A802256
:102D800013400BD07B681B685B680E4A1340190028
:102D90007B68DA6C7B681B680A435A60C046BD4694
:102DA00002B080BDFF7FFFFFFFFFFDFFFFFFFEFFC3
:102DB000FFFFFBFFFFEFFFFFFFDFFFFFFFFFEFFF67
:102DC000FFFF9FFFFFFFF7FF80B592B002AF786073
:102DD0007B68902200219950FDF756FD0300FB63AC
:102DE0007B681B681B6808221340082B2DD1FB6BE6
:102DF000802291037868474A0092002200F08EF802
:102E0000031E22D0EFF310837B627B6ABB63012336
:102E1000BB62BB6A83F31088C0467B681B681A6874
:102E20007B681B6880218A431A60BB6BFB62FB6A6C
:102E300083F31088C0467B688822202199507B68E4
:102E4000842200219954032360E07B681B681B687F
:102E500004221340042B46D1FB6B8022D1037868F7
:102E60002C4A0092002200F059F8031E3BD0EFF3E9
:102E70001083FB60FB687B6301233B613B6983F349
:102E80001088C0467B681B681A687B681B682249EB
:102E90000A401A607B6B7B617B6983F31088C046B4
:102EA000EFF31083BB61BB693B630123FB61FB69EB
:102EB00083F31088C0467B681B689A687B681B6830
:102EC00001218A439A603B6B3B623B6A83F3108823
:102ED000C0467B688C22202199507B688422002187
:102EE0009954032312E07B688822202199507B6843
:102EF0008C22202199507B680022DA667B680022B0
:102F00001A677B6884220021995400231800BD466B
:102F100010B080BDFFFFFF01DFFEFFFF80B584B072
:102F200000AFF860B9603B60FB1D1A7051E0BB69EF
:102F300001334ED0FDF7A8FC02003B68D31ABA69F2
:102F40009A4202D3BB69002B01D1032351E0FB68F5
:102F50001B681B68042213403BD0BB68802B38D011
:102F6000BB68402B35D0FB681B68DB690822134027
:102F7000082B11D1FB681B6808221A62FB68180035
:102F800000F03CF8FB68902208219950FB688422ED
:102F90000021995401232CE0FB681B68DA69802327
:102FA0001B011A4080231B019A4212D1FB681B6847
:102FB000802212011A62FB68180000F01FF8FB68FB
:102FC000902220219950FB688422002199540323E8
:102FD0000FE0FB681B68DB69BA681340BA68D31A54
:102FE0005A425341DBB21A00FB1D1B789A429ED015
:102FF00000231800BD4604B080BD000080B58EB02F
:1030000000AF7860EFF310837B617B697B63012302
:10301000BB61BB6983F31088C0467B681B681A6874
:103020007B681B6826490A401A607B6BFB61FB6961
:1030300083F31088C046EFF310833B623B6A3B6327
:1030400001237B627B6A83F31088C0467B681B6820
:103050009A687B681B681B490A409A603B6BBB629D
:10306000BB6A83F31088C0467B68DB6E012B18D1E6
:10307000EFF31083BB60BB68FB620123FB60FB685E
:1030800083F31088C0467B681B681A687B681B68DE
:1030900010218A431A60FB6A3B613B6983F3108805
:1030A000C0467B688C22202199507B680022DA661A
:1030B0007B6800225A67C046BD460EB080BDC04640
:1030C000DFFEFFFFFEFFFFEF80B582B000AFFDF730
:1030D00067FB00F037F800F07BF80020FDF7B6F949
:1030E00001210020FDF7F0F9144BE12252021A6091
:1030F000124B00225A60114B00221A810F4B002202
:103100005A810E4B00229A810C4B19000020FDF7CA
:103110007FFA031E01D000F0B5F8A023DB052021C3
:103120001800FDF79BFE00237B6002E07B68013303
:103130007B607B68024A9342F8D9EEE7E00000200A
:103140003F420F0090B599B000AF14243B1918000E
:103150004C231A00002100F036F93B1D1800102303
:103160001A00002100F02FF98023DB001800FDF782
:1031700091FE3B1902221A603B1980225200DA604C
:103180003B1940221A613B190022DA623B191800F0
:10319000FDF7ECFE031E01D000F074F83B1D072282
:1031A0001A603B1D01225A603B1D00229A603B1DA4
:1031B0000022DA603B1D01211800FEF701FB031E0F
:1031C00001D000F05FF8C046BD4619B090BD0000C8
:1031D00090B58BB000AF14243B19180014231A00CB
:1031E000002100F0F0F8254BDA6C244B04210A434F
:1031F000DA64224BDB6C042213403B613B691F4BBA
:10320000DA6C1E4B20210A43DA641C4BDB6C202253
:103210001340FB60FB68194BDA6C184B01210A4321
:10322000DA64164BDB6C01221340BB60BB68134BA6
:10323000DA6C124B02210A43DA64104BDB6C022277
:1032400013407B607B683B19C02292001A6021000A
:103250007B1812225A607B1800229A607B18002289
:10326000DA607B1804221A617B18054A19001000E5
:10327000FDF780FCC046BD460BB090BD001002407B
:103280000004005080B500AF72B6C046C046FDE7EE
:1032900080B582B000AF0F4B9A6D0E4B802149056F
:1032A0000A439A650B4B9A6D80235B0513407B6044
:1032B0007B68084B1A6E074B01210A431A66054BBF
:1032C0001B6E012213403B603B68C046BD4602B006
:1032D00080BDC0460010024080B500AFC046FDE78B
:1032E00080B500AFC046FDE780B500AFC046BD4623
:1032F00080BD80B500AFC046BD4680BD80B500AF83
:10330000FDF7B0FAC046BD4680BD80B500AF0020D5
:10331000FDF75CF9C046BD4680BD000080B582B0B7
:1033200000AF124B802212059A60114A8023D358B5
:103330007B600F4B1B6A3B607A6880235B02134003
:1033400010D03B68FF221340CC2B0BD03B68FF22F0
:103350001340AA2B06D0064B1A68054B8021C902E0
:103360000A431A60C046BD4602B080BD00ED00E0D1
:10337000002002400D488546FFF7D0FF0C480D495C
:103380000D4A002302E0D458C4500433C4188C42C0
:10339000F9D30A4A0A4C002301E013600432A24226
:1033A000FBD300F019F8FFF78FFEFEE700A0002026
:1033B0000000002020000020303500082000002000
:1033C000F0000020FEE703008218934200D170470E
:1033D00019700133F9E7000070B500260C4C0D4D53
:1033E000641BA410A64209D1002600F019F80A4C6B
:1033F0000A4D641BA410A64205D170BDB300EB5862
:1034000098470136EEE7B300EB5898470136F2E7EC
:1034100028350008283500082C3500082835000814
:10342000F8B5C046F8BC08BC9E467047F8B5C04623
:08343000F8BC08BC9E46704781
:103438000D0000066C260008E21D0008681E000842
:103448006C260008442000086C2600086C2600083A
:103458006C260008A81F00086C2600086C260008C7
:103468006C2600086C2600086C2600086C260008EC
:103478006C260008FA1E00086C2600086C26000856
:103488006C2600086C2600086C2600086C260008CC
:103498006C2600086C2600086C2600086C260008BC
:1034A8006C2600086C2600086C2600086C260008AC
:1034B8006C260008362100080100020004000600FE
:1034C80008000A000C0010002000400080000001E5
:1034D80000000000000000000102030406070809BC
:1034E8000000000001020304A0860100400D030053
:1034F800801A060000350C0040420F0080841E0030
:1035080000093D0000127A000024F40000366E0124
:083518000048E801006CDC0230
:0835200040CDFF7F0100000017
:04352800E9000008AE
:04352C00C1000008D2
:10353000004400400000005000080050E106000870
:103540000F000000040000000100000000093D0021
:040000050800337547
:00000001FF
